{
  "contractName": "ethTodo",
  "abi": [
    {
      "constant": true,
      "inputs": [
        {
          "name": "",
          "type": "uint256"
        }
      ],
      "name": "taskList",
      "outputs": [
        {
          "name": "taskId",
          "type": "uint256"
        },
        {
          "name": "content",
          "type": "string"
        },
        {
          "name": "done",
          "type": "bool"
        }
      ],
      "payable": false,
      "stateMutability": "view",
      "type": "function"
    },
    {
      "constant": true,
      "inputs": [],
      "name": "taskNo",
      "outputs": [
        {
          "name": "",
          "type": "uint256"
        }
      ],
      "payable": false,
      "stateMutability": "view",
      "type": "function"
    },
    {
      "inputs": [],
      "payable": false,
      "stateMutability": "nonpayable",
      "type": "constructor"
    },
    {
      "constant": false,
      "inputs": [
        {
          "name": "_taskContent",
          "type": "string"
        }
      ],
      "name": "newTask",
      "outputs": [],
      "payable": false,
      "stateMutability": "nonpayable",
      "type": "function"
    }
  ],
  "bytecode": "0x60806040526000805534801561001457600080fd5b5060408051808201909152601b81527f796f7572204c697374206f66207461736b20676f657320686572650000000000602082015261005b90640100000000610060810204565b610167565b60008054600190810180835560408051606081018252828152602080820187815282840187905293865284815291909420845181559151805192936100ad939085019291909101906100cc565b50604091909101516002909101805460ff191691151591909117905550565b828054600181600116156101000203166002900490600052602060002090601f016020900481019282601f1061010d57805160ff191683800117855561013a565b8280016001018555821561013a579182015b8281111561013a57825182559160200191906001019061011f565b5061014692915061014a565b5090565b61016491905b808211156101465760008155600101610150565b90565b6103d3806101766000396000f3fe6080604052600436106100565763ffffffff7c01000000000000000000000000000000000000000000000000000000006000350416632a1c52a5811461005b578063c10f9b1d1461010f578063d4393de8146101c4575b600080fd5b34801561006757600080fd5b506100856004803603602081101561007e57600080fd5b50356101eb565b604051808481526020018060200183151515158152602001828103825284818151815260200191508051906020019080838360005b838110156100d25781810151838201526020016100ba565b50505050905090810190601f1680156100ff5780820380516001836020036101000a031916815260200191505b5094505050505060405180910390f35b34801561011b57600080fd5b506101c26004803603602081101561013257600080fd5b81019060208101813564010000000081111561014d57600080fd5b82018360208201111561015f57600080fd5b8035906020019184600183028401116401000000008311171561018157600080fd5b91908080601f01602080910402602001604051908101604052809392919081815260200183838082843760009201919091525092955061029a945050505050565b005b3480156101d057600080fd5b506101d9610306565b60408051918252519081900360200190f35b600160208181526000928352604092839020805481840180548651600296821615610100026000190190911695909504601f810185900485028601850190965285855290949193929091908301828280156102875780601f1061025c57610100808354040283529160200191610287565b820191906000526020600020905b81548152906001019060200180831161026a57829003601f168201915b5050506002909301549192505060ff1683565b60008054600190810180835560408051606081018252828152602080820187815282840187905293865284815291909420845181559151805192936102e79390850192919091019061030c565b50604091909101516002909101805460ff191691151591909117905550565b60005481565b828054600181600116156101000203166002900490600052602060002090601f016020900481019282601f1061034d57805160ff191683800117855561037a565b8280016001018555821561037a579182015b8281111561037a57825182559160200191906001019061035f565b5061038692915061038a565b5090565b6103a491905b808211156103865760008155600101610390565b9056fea165627a7a723058201753d037b8478f9b1dc50237a676c6a4ded281ab3f88d7a331b933dede1a6dd80029",
  "source": "pragma solidity ^0.5.0;\r\n\r\ncontract ethTodo {\r\n  uint public taskNo = 0;\r\n  struct task {\r\n    uint taskId;\r\n    string content;\r\n    bool done;\r\n  }\r\n\r\n  mapping(uint => task) public taskList;\r\n\r\n  constructor() public {\r\n    newTask(\"your List of task goes here\");\r\n  }\r\n\r\n  function newTask(string memory _taskContent) public {\r\n    taskNo++;\r\n    taskList[taskNo] = task(taskNo, _taskContent, false);\r\n  }\r\n\r\n}",
  "sourcePath": "C:/Users/User/Downloads/BlockChain development/eth-todo-App/contracts/ethTodo.sol",
  "compiler": {
    "name": "solc",
    "version": "0.5.0+commit.1d4f565a.Emscripten.clang"
  },
  "schemaVersion": "3.0.1",
  "updatedAt": "2020-07-16T12:46:37.713Z",
  "devdoc": {
    "methods": {}
  },
  "userdoc": {
    "methods": {}
  }
}